:03000000020006F5
:03005F0002000399
:0300030002006296
:20006200750830750931750A32750B33750C34750D35750E36750F377510387511397512DB
:1F008200417513427514437515447516457517007F00EF2408F987900FEF24F050F4223C
:06003500E478FFF6D8FD9F
:200013007900E94400601B7A009000A5780175A000E493F2A308B8000205A0D9F4DAF275EE
:02003300A0FF2C
:20003B007800E84400600A790175A000E4F309D8FC7800E84400600C7900900001E4F0A3C3
:04005B00D8FCD9FAFA
:0D0006007581171200A1E58260030200035E
:0400A1007582002242
:00000001FF
